:020000040800F2
:100000000020002099030008B5030008B903000888
:10001000BD030008C1030008C5030008000000007C
:10002000000000000000000000000000C9030008FC
:10003000CD03000800000000D1030008D50300082C
:10004000D9030008DD030008E1030008E503000808
:10005000E9030008ED030008F1030008F5030008B8
:10006000F9030008FD030008010400080504000866
:10007000090400080D040008110400081504000814
:10008000190400081D0400082104000825040008C4
:10009000290400082D040008310400083504000874
:1000A000390400083D040008410400084504000824
:1000B000490400084D0400085104000855040008D4
:1000C000590400085D040008610400086504000884
:1000D000690400086D040008710400087504000834
:1000E000790400087D0400088104000885040008E4
:1000F000890400088D040008910400089504000894
:10010000990400089D040008A1040008A504000843
:10011000A9040008AD040008B1040008B5040008F3
:10012000B9040008BD040008C1040008C5040008A3
:10013000C9040008CD040008D1040008D504000853
:10014000D9040008DD040008E1040008E504000803
:10015000E9040008ED040008F1040008F5040008B3
:10016000F9040008FD040008010500080505000861
:10017000090500080D05000811050008150500080F
:10018000190500081D0500082105000825050008BF
:10019000290500082D05000831050008350500086F
:1001A000390500083D0500084105000880B55248A2
:1001B000006850F47000504908605048006850F0E2
:1001C00001004E4908604E48002101604B4800681C
:1001D0004C490840494908604B484C490160474830
:1001E000006830F4802045490860494800210160DA
:1001F00000F005F847485FF00061016001BD82B082
:1002000000200190002000903C48006850F48030AD
:100210003A4908603948006810F4003000900198AD
:10022000401C01900098002803D10198B0F5A04F20
:10023000F0D132480068800302D50120009001E02F
:10024000002000900098012852D13348006850F0F7
:100250008050314908603148006850F440402F49CF
:10026000086027482649096801602548006850F45D
:100270000040234908602248006850F4A0502049FB
:1002800008602148264901601C48006850F08070D1
:100290001A490860194800688001FBD51F480068AA
:1002A00050F480301D4908601E480068C003FBD52B
:1002B0001A48006850F4003018490860194800686E
:1002C0008003FBD5184840F2057101600C480068B6
:1002D000800880000A4908600948006850F0020060
:1002E000074908600648006810F00C000828F9D19A
:1002F00002B070470000000088ED00E000380240C6
:1003000008380240FFFFF6FE043802401030002497
:100310000C38024008ED00E0403802400070004018
:10032000195A400704700040003C02404EF68851C4
:10033000CEF20001086840F470000860BFF34F8FF0
:10034000BFF36F8F4FF00070E1EE100A70470000AE
:1003500000F00BF8002801D0C046C0460020C0467F
:10036000C04600F004F800F004F8012070470020B7
:10037000704700F001B800000746384600F002F868
:10038000FBE7000080B5C046C046024A11001820B5
:10039000ABBEFBE72600020001488047014800474A
:1003A000AD010008A9030008C046C046FFF7BEFF24
:1003B000FFF7CEFFFFF7FEBFFFF7FEBFFFF7FEBF61
:1003C000FFF7FEBFFFF7FEBFFFF7FEBFFFF7FEBF61
:1003D000FFF7FEBFFFF7FEBFFFF7FEBFFFF7FEBF51
:1003E000FFF7FEBFFFF7FEBFFFF7FEBFFFF7FEBF41
:1003F000FFF7FEBFFFF7FEBFFFF7FEBFFFF7FEBF31
:10040000FFF7FEBFFFF7FEBFFFF7FEBFFFF7FEBF20
:10041000FFF7FEBFFFF7FEBFFFF7FEBFFFF7FEBF10
:10042000FFF7FEBFFFF7FEBFFFF7FEBFFFF7FEBF00
:10043000FFF7FEBFFFF7FEBFFFF7FEBFFFF7FEBFF0
:10044000FFF7FEBFFFF7FEBFFFF7FEBFFFF7FEBFE0
:10045000FFF7FEBFFFF7FEBFFFF7FEBFFFF7FEBFD0
:10046000FFF7FEBFFFF7FEBFFFF7FEBFFFF7FEBFC0
:10047000FFF7FEBFFFF7FEBFFFF7FEBFFFF7FEBFB0
:10048000FFF7FEBFFFF7FEBFFFF7FEBFFFF7FEBFA0
:10049000FFF7FEBFFFF7FEBFFFF7FEBFFFF7FEBF90
:1004A000FFF7FEBFFFF7FEBFFFF7FEBFFFF7FEBF80
:1004B000FFF7FEBFFFF7FEBFFFF7FEBFFFF7FEBF70
:1004C000FFF7FEBFFFF7FEBFFFF7FEBFFFF7FEBF60
:1004D000FFF7FEBFFFF7FEBFFFF7FEBFFFF7FEBF50
:1004E000FFF7FEBFFFF7FEBFFFF7FEBFFFF7FEBF40
:1004F000FFF7FEBFFFF7FEBFFFF7FEBFFFF7FEBF30
:10050000FFF7FEBFFFF7FEBFFFF7FEBFFFF7FEBF1F
:10051000FFF7FEBFFFF7FEBFFFF7FEBFFFF7FEBF0F
:10052000FFF7FEBFFFF7FEBFFFF7FEBFFFF7FEBFFF
:10053000FFF7FEBFFFF7FEBFFFF7FEBFFFF7FEBFEF
:04054000FFF7FEBF04
:04000005080003A943
:00000001FF
